:100000000428FF3FFF3FFF3F03138316860183123F
:10001000A001A10180302106F0008030023A700278
:10002000031D1428583020020318282806146330B2
:10003000FA00FA0B19280000000006106330FA00DD
:10004000FA0B202800000000A00A0319A10A0A28C0
:100050000B30FC00FF30FB00FF30FA00FC0B3128B6
:100060003828FB0B34283728FA0B342831282E285F
:100070003330FB00FF30FA00FB0B3F284228FA0B1D
:100080003F283C288830FA00FA0B4428A001A1013F
:1000900080302106F00080307002031D5128963018
:1000A00020020318792806140230FB00FF30FA0002
:1000B000FB0B5B285E28FA0B5B285828F030FA000F
:1000C000FA0B60280000000006100230FB00FF3031
:1000D000FA00FB0B6C286F28FA0B6C286928F030AB
:1000E000FA00FA0B712800000000A00A0319A10A07
:1000F00048280330FC00FF30FB00FF30FA00FC0B07
:1001000082288928FB0B85288828FA0B85288228D5
:100110007F288C30FB00FF30FA00FB0B90289328DF
:10012000FA0B90288D28A130FA00FA0B95280000D0
:10013000A201A30180302306F00080307002031D6D
:10014000A328643022020318C92806140430FB00D7
:10015000FF30FA00FB0BAD28B028FA0BAD28AA2817
:100160003B30FA00FA0BB228000006100430FB0006
:10017000FF30FA00FB0BBD28C028FA0BBD28BA28B7
:100180003B30FA00FA0BC2280000A20A0319A30AA6
:100190009A280B30FC00FF30FB00FF30FA00FC0B0C
:1001A000D228D928FB0BD528D828FA0BD528D22855
:1001B000CF283330FB00FF30FA00FB0BE028E328A8
:1001C000FA0BE028DD288830FA00FA0BE528A401B4
:1001D000A50180302506F00080307002031DF22852
:1001E0009630240203181A2906140230FB00FF304F
:1001F000FA00FB0BFC28FF28FA0BFC28F928F0304A
:10020000FA00FA0B01290000000006100230FB0082
:10021000FF30FA00FB0B0D291029FA0B0D290A29D2
:10022000F030FA00FA0B122900000000A40A0319AA
:10023000A50AE9280630FC00FF30FB00FF30FA0079
:10024000FC0B23292A29FB0B26292929FA0B26290D
:10025000232920291A30FB00FF30FA00FB0B31293B
:100260003429FA0B31292E294230FA00FA0B3629AB
:1002700007283929FF3FFF3FFF3FFF3FFF3FFF3F79
:02400E007A3FF7
:00000001FF
